:020000040800F2
:100000000000012061020008650200086702000884
:100010007D0200087F020008950200080000000031
:10002000000000000000000000000000AB0200081B
:10003000AD02000800000000AF020008B102000895
:10004000C5020008C5020008C5020008C502000874
:10005000C5020008C5020008C5020008C502000864
:10006000C5020008C5020008C5020008C502000854
:10007000C5020008C5020008C5020008C502000844
:10008000C5020008C5020008C50200080000000003
:10009000000000000000000000000000C502000891
:1000A000C5020008C5020008C5020008C502000814
:1000B000C5020008C5020008C5020008C502000804
:1000C000C5020008C5020008C5020008C5020008F4
:1000D000C5020008C5020008C502000800000000B3
:1000E000C5020008C5020008C502000800000000A3
:1000F000000000000000000000000000C502000831
:1001000000000000C5020008C5020008C502000882
:1001100000000000000000000000000000000000DF
:10012000C5020008C5020008C5020008C502000893
:10013000C5020008000000000000000000000000F0
:10014000000000000000000000000000C5020008E0
:10015000C5020008C5020008C5020008C502000863
:10016000C5020008C50200080000000000000000F1
:10017000000000000000000000000000000000007F
:1001800000000000C50200080000000000000000A0
:10019000C502000807B500F0B7F8274B274883428F
:1001A00026D3274A274900208A422CD300F0B8F8EA
:1001B000254D264C01A9684600F09EF8641BA4104A
:1001C0000026B44228DC224D224C641BA4100026D9
:1001D000B44226DCDDE9000100F042F91E4E1F4C5E
:1001E000A41B0546A410002C20DC284600F080F853
:1001F000D3E900129C680C33891A9442CFD9555820
:1002000015600432F9E752F8083B52F8044C9C425E
:10021000CAD943F8040BFAE755F8043B984701366E
:10022000CFE755F8043B98470136D1E7013C56F833
:1002300024309847D7E700BFC8020008E002000852
:10024000E0020008F0020008F0020008F0020008D6
:10025000F0020008F0020008F0020008F0020008B6
:1002600014480047FEE71EF0040F0CBFEFF30880B0
:10027000EFF309807146104A1047FEE7FEE71EF0D3
:10028000040F0CBFEFF30880EFF3098071460B4AAF
:100290001047FEE71EF0040F0CBFEFF30880EFF3EA
:1002A00009807146064A1047FEE7FEE7FEE7FEE7D3
:1002B00070470000950100087B02000893020008C7
:0602C000A9020008FEE7A0
:1002C8006C07000800000020100000206C070008E0
:1002D800000000100000001010000020280000207E
:0802E8000000001000000010EE
:1002F00008B500F017F8000001230360014B0B6004
:10030000704700BF0000002008B500F01DF8024B48
:10031000024A9A6008BD00BF00ED00E0000000083E
:1003200000F01AB8BFF34F8F0549064BCA6802F4B4
:10033000E0621343CB60BFF34F8F00BFFDE700BF08
:1003400000ED00E00400FA05024B4FF000629A60F5
:10035000704700BF00ED00E0174A1849936803F0AA
:100360000C03042B0DD0082B0DD0154B0B60124B3A
:10037000144A9B68C3F30313D25C0B68D3400B6031
:100380007047114BF2E75368506813F4800F00F088
:100390003F00536814BF0C4A094AB2FBF0F0064A0A
:1003A0005268C2F30142C3F388130132434352003F
:1003B000B3FBF2F3DAE700BF003802400800002088
:1003C0000024F4005C07000800127A0010B500F069
:1003D000A5F9044668B900F0ADF90B4BB0F5FA7F0A
:1003E00018608CBF21460121BDE81040032000F0B9
:1003F00045B90021022000F041F9044B00221A7097
:10040000034B01221A7010BD1C00002011000020B7
:100410001700002010B500F081F90446A0B900F0E3
:1004200089F90C4BB0F5FA7F186005D36FF47A7335
:10043000C318B3F5F97F05D80121BDE810400320AA
:1004400000F01CB92146F8E7034A00231370034A61
:10045000137010BD1C0000201100002018000020A7
:100460002DE9F84F00F0B0F84E4A4F4DD2F8083859
:100470004E4EDFF83C914F4F43F0B003C2F80838BE
:100480000120002400F0AAF86E2000F0A7F800F088
:10049000D9F800F01DF9214603202C70347000F0CB
:1004A000EDF82146042000F0E9F82146022000F092
:1004B000E5F8002000F0F2F889F80000012000F0D3
:1004C000EDF899F80040DFF8F080DFF8F0A0387020
:1004D000012C014620D195F800B0BBF1000F1BD1D3
:1004E000214604202C7000F0C9F82146022000F0BB
:1004F000C5F84FF4FA6000F0FDF8022388F80030E8
:1005000086F800B09AF80030EBB998F80030022B6A
:1005100043D1FFF75BFFCCE72B78012B08D10129F2
:1005200006D1337823B90220317000F0A7F8E9E74B
:10053000234B1B78002BE5D04FF4FA5000F0DAF88B
:1005400001238AF8003000F0E9F838B9012000F002
:10055000A5F838701A4B00221A70D6E7012000F077
:100560009DF8184B18703B789842F3D12B78012BEB
:10057000F0D134780443EDD1214602202C7000F0F4
:100580007DF82146042000F079F84FF4FA6000F07D
:10059000B1F8042388F80030DCE7042B89D1FFF799
:1005A00039FF86E7003002401500002014000020CB
:1005B000160000201200002011000020180000206A
:1005C0001700002013000020034AD2F8003843F03F
:1005D0000103C2F8003870470030024000F01F03EA
:1005E000400903282AD8DFE800F0020C162014493D
:1005F000012202FA03F3D1F830281A43C1F8302857
:1006000070470F49012202FA03F3D1F834281A4344
:10061000C1F8342870470A49012202FA03F3D1F8DD
:1006200040281A43C1F8402870470549012202FAC0
:1006300003F3D1F844281A43C1F84428704700BF97
:10064000003002400C4AD2F80C14D2F8003421F0E9
:100650000F0141F00501C2F80C1423F47F73D2F8A6
:10066000041423F0030343F4A87321F01C01C2F81F
:100670000034C2F80414704700000240064A012307
:1006800003FA00F0D2F81434012923EA000308BF6A
:100690000343C2F81434704700000240094A0123A2
:1006A000D2F8102483401340C340074ADBB21370D2
:1006B000064A2BB91078411E4842484113707047D2
:1006C0000020FBE700000240200000200C0000207A
:1006D00008B54020FFF782FF4FF0804340F2E73239
:1006E0004FF6FF71C3E90A215A6942F001025A61CB
:1006F00008BD00004FF0804319691A68D86221F0E4
:100700000101196142F0010200211A605962024B95
:1007100001221A80704700BF220000204FF0804263
:10072000136913F001001EBF23F0010313610120C0
:1007300070470000074B188850B14FF080431A698A
:10074000D20703D4586A044B186070474FF0FF304B
:10075000704700BF2200002024000020000000009D
:0C07600000000000010203040607080965
:10076C0010000020000000000024F40001FFFFFF37
:040000050800019559
:00000001FF
