:020000040800F2
:1000000000000120050300080B030008110300088D
:1000100033030008390300085B03000800000000F8
:100020000000000000000000000000007D03000848
:100030008303000800000000890300088F03000804
:10004000AD030008AD030008AD030008AD030008D0
:10005000AD030008AD030008AD030008AD030008C0
:10006000AD030008AD030008AD030008AD030008B0
:10007000AD030008AD030008AD030008AD030008A0
:10008000AD030008AD030008AD0300080000000048
:10009000000000000000000000000000AD030008A8
:1000A000AD030008AD030008AD030008AD03000870
:1000B000AD030008AD030008AD030008AD03000860
:1000C000AD030008AD030008AD030008AD03000850
:1000D000AD030008AD030008AD03000800000000F8
:1000E000AD030008AD030008AD03000800000000E8
:1000F000000000000000000000000000AD03000848
:1001000000000000AD030008AD030008AD030008C7
:1001100000000000000000000000000000000000DF
:10012000AD030008AD030008AD030008AD030008EF
:10013000AD03000800000000000000000000000007
:10014000000000000000000000000000AD030008F7
:10015000AD030008AD030008AD030008AD030008BF
:10016000AD030008AD03000800000000000000001F
:10017000000000000000000000000000000000007F
:1001800000000000AD0300080000000000000000B7
:10019000AD03000880B596B000AF00F037F94F4BC3
:1001A0007B6524E07B6D1A1D7A651B683B647B6D63
:1001B0001A1D7A651B68FB637B6D1A1D7A651B68C7
:1001C000BB633B6C7B63FB6B3B63BB6BFB623B6B5F
:1001D000BB6207E07A6B131D7B63BB6A191DB962B2
:1001E00012681A60FA6ABB6A9A42F3D800BF7B6D44
:1001F0003B4A9342D6D33B4B3B651AE03B6D1A1DFD
:100200003A651B68BB643B6D1A1D3A651B687B64CD
:10021000BB6C7B627B6C3B627B6AFB6104E0FB69CD
:100220001A1DFA6100221A603A6AFB699A42F6D8EE
:1002300000BF3B6D2C4A9342E0D300F0F5F83A1D25
:1002400007F108031146184600F0CEF8274A284B5C
:10025000D31A9B103B610023FB6007E0244AFB6834
:1002600052F823309847FB680133FB603A69FB681A
:100270009A42F3DC1F4A204BD31A9B103B610023A8
:10028000FB6007E01C4AFB6852F823309847FB6884
:100290000133FB603A69FB689A42F3DC00BFBB683C
:1002A0007A681146184600F06BF9F864134A144B4B
:1002B000D31A9B10BB61BB697B6108E07B69013B82
:1002C0000F4A52F8233098477B69013B7B617B6979
:1002D000002BF3DC00BFF86C00F080F8B4030008DA
:1002E000CC030008CC030008DC030008DC03000892
:1002F000DC030008DC030008DC030008DC03000862
:10030000DC0300082548004700BF80B400AFFEE7CB
:100310001EF0040F0CBFEFF30880EFF30980714665
:100320001F4A104700BF80B483B000AF78603960C7
:10033000FEE780B400AFFEE71EF0040F0CBFEFF342
:100340000880EFF309807146164A104700BF80B459
:1003500083B000AF78603960FEE71EF0040F0CBF79
:10036000EFF30880EFF3098071460F4A104700BF92
:1003700080B483B000AF78603960FEE780B400AF2E
:10038000FEE780B400AFFEE780B400AFFEE780B4C4
:1003900000AF00BFBD4680BC70470000950100085B
:1003A000270300084F0300087103000880B400AF62
:0203B000FEE766
:1003B4007C0D0008000000200C0000207C0D0008CB
:1003C40000000010000000100C0000202C00002091
:0803D400000000100000001001
:1003DC0080B582B000AF786000F03CF880B483B098
:1003EC0000AF786039607B6801221A603B68034A71
:1003FC001A6000BF0C37BD4680BC7047000000205F
:10040C0080B500AF00F02AF8024B034A9A6000BF97
:10041C0080BD00BF00ED00E00000000880B500AF1B
:10042C0000F028F800BF80BD80B400AFBFF34F8F41
:10043C0000BF064BDB6803F4E0620449044B134332
:10044C00CB60BFF34F8F00BF00BFFDE700ED00E0B6
:10045C000400FA0580B500AFFFF7E6FF80B400AFEB
:10046C00034B4FF000629A6000BFBD4680BC7047E2
:10047C0000ED00E080B487B000AF00233B610023A7
:10048C007B610223FB600023BB6002237B60344B47
:10049C009B6803F00C033B613B69082B11D03B6953
:1004AC00082B44D83B69002B03D03B69042B04D0A8
:1004BC003DE02C4B2C4A1A603DE02A4B2B4A1A602B
:1004CC0039E0274B5B689B0D03F00103BB60244BA9
:1004DC005B6803F03F037B60BB68002B0CD0234AA6
:1004EC007B68B2FBF3F31E4A52689209C2F308020E
:1004FC0002FB03F37B610BE01B4A7B68B2FBF3F35B
:10050C00174A52689209C2F3080202FB03F37B619B
:10051C00134B5B681B0C03F0030301335B00FB60A4
:10052C007A69FB68B2FBF3F30E4A136003E00D4BE0
:10053C000D4A1A6000BF0A4B9B681B0903F00F039E
:10054C000B4AD35C3B61074B1A683B6922FA03F3F5
:10055C00044A136000BF1C37BD4680BC704700BF07
:10056C0000380240080000200024F40000127A0039
:10057C006C0D000880B582B000AF00F003FA0023C8
:10058C00FB715A4B1B68594A43F0B00313600120AE
:10059C0000F006FA00F058FA00F05CFBFB79002B37
:1005AC0014D10123FB71524B00221A70514B0022C3
:1005BC001A700021032000F0B7FA0021042000F08B
:1005CC00B3FA0021022000F0AFFAE7E7002000F0B8
:1005DC00D3FA03461A46484B1A70012000F0CCFAA5
:1005EC0003461A46454B1A70444B1B78012B0AD113
:1005FC00434B1B78002B03D1414B01221A7002E0B4
:10060C003F4B00221A703C4B1B78012B1CD1384BF2
:10061C001B78002B18D13B4B00221A70344B012253
:10062C001A700121042000F07FFA0121022000F051
:10063C007BFA4FF4FA6000F027FB2E4B00221A7065
:10064C00314B02221A702BE0294B1B78012B27D13E
:10065C002C4B00221A70274B1B78002B06D12A4BEF
:10066C001B78002B1CD100F087F819E0214B1B786C
:10067C00012B15D1224B1B78002B11D11D4B0022C5
:10068C001A700021042000F04FFA0021032000F022
:10069C004BFA4FF47A7000F0F7FA1B4B05221A70E4
:1006AC00194B1B78022B02D100F032F80CE0164BE0
:1006BC001B78052B02D100F001F905E0124B1B78D9
:1006CC00062B01D100F012F9104B1B78012B7FF493
:1006DC0065AF0C4B1B78002B7FF460AF002104201E
:1006EC0000F022FA00F09CF858E700BF08380240EE
:1006FC001100002014000020100000201200002027
:10070C00130000201E0000201C0000201D000020F3
:10071C0080B500AF00F0E8FA0346002B1CD100F0C6
:10072C00FBFA0346114A1360104B1B68B3F5FA7FB2
:10073C0006D20F4B1B680E4A43F00803136012E0FD
:10074C000A4B1B68B3F57A7F0DD2094B1B68084A1C
:10075C0023F00803136006E00021022000F0E4F906
:10076C00044B00221A7000BF80BD00BF180000208F
:10077C00140402401C00002080B500AF204B1B78F5
:10078C00002B06D142F2107000F07EFA1C4B0122B5
:10079C001A7000F0A9FA0346002B1ED1194B1B78D6
:1007AC00002B0CD00121022000F0BEF9164B0122C7
:1007BC001A70164B01221A70114B00221A70144B2E
:1007CC001B78002B19D0134B00221A700E4B0122F0
:1007DC001A70114B06221A700FE00B4B1B78012B71
:1007EC000BD00E4B01221A700A4B00221A700A4BC6
:1007FC0003221A70024B00221A7000BF80BD00BF8A
:10080C000D000020120000201E000020140000200B
:10081C0010000020110000201C0000201D000020F2
:10082C0080B500AF204B1B78002B06D14FF4FA603B
:10083C0000F02AFA1C4B01221A7000F055FA0346FC
:10084C00002B22D100F068FA0346184A1360174BAC
:10085C001B68B3F5FA7F0AD3144B1B68B3F57A7F88
:10086C000CD9124B1B6840F2DB52934206D8104B4A
:10087C001B680F4A43F00803136013E00C4B1B6812
:10088C000B4A23F0080313600CE00A4B01221A7088
:10089C00094B00221A700021022000F045F9024B8E
:1008AC0000221A7000BF80BD0E000020180000202E
:1008BC00140402401E0000201D00002080B500AF73
:1008CC0000F012FA0346002B04D10121022000F0A3
:1008DC002BF906E00021022000F026F9024B002241
:1008EC001A7000BF80BD00BF1C00002080B500AF97
:1008FC000021042000F018F91F4B1B78002B06D1A7
:10090C004FF4FA6000F0C0F91B4B01221A7000F092
:10091C00EBF90346002B1ED100F0FEF90346174AF3
:10092C001360164B1B68B3F5FA7F0AD3134B1B6885
:10093C00B3F57A7F0AD9114B1B6840F2DB52934214
:10094C0004D80121032000F0EFF812E0002103206D
:10095C0000F0EAF80DE00021032000F0E5F800219A
:10096C00022000F0E1F8064B00221A70024B002224
:10097C001A7000BF80BD00BF0F00002018000020BF
:10098C001C00002080B400AF044B1B68034A43F0EA
:10099C000103136000BFBD4680BC704700380240A5
:1009AC0080B485B000AF0346FB71FB795B09FB7328
:1009BC00FB7903F01F03BB73FB7B032B36D801A21F
:1009CC0052F823F0E1090008F70900080D0A0008A5
:1009DC00230A0008184B1B68BA7B012101FA02F2AA
:1009EC001146154A0B43136021E0144B1B68BA7B6C
:1009FC00012101FA02F21146104A0B43136016E072
:100A0C000F4B1B68BA7B012101FA02F211460C4A0A
:100A1C000B4313600BE00B4B1B68BA7B012101FAF3
:100A2C0002F21146074A0B43136000E000BF00BFFF
:100A3C001437BD4680BC7047303802403438024011
:100A4C00403802404438024080B483B000AF0023E9
:100A5C00FB710023FB7129E0304B1B68FA795200C3
:100A6C00032101FA02F2D24311462C4A0B401360C7
:100A7C002A4B2A4A1B681360294B1B68FA795200CF
:100A8C00032101FA02F2D2431146254A0B401360AE
:100A9C00234B1B68FA795200012101FA02F211462C
:100AAC001F4A0B431360FB790133FB71FB79012B5C
:100ABC00D2D90223FB7128E0184B1B68FA7952003B
:100ACC00032101FA02F2D2431146144A0B4013607F
:100ADC00124B1B68FA795200012101FA02F21146FD
:100AEC000E4A0B4313600F4B1B68FA79012101FA74
:100AFC0002F2D24311460B4A0B401360094B094AD0
:100B0C001B681360FB790133FB71FB79042BD3D980
:100B1C0000BF00BF0C37BD4680BC704700040240CC
:100B2C000C0402400404024080B483B000AF0346BE
:100B3C000A46FB711346BB71BB79012B0AD10D4BD5
:100B4C001B68B979FA7901FA02F21146094A0B438A
:100B5C0013600AE0074B1B68FA79012101FA02F2D3
:100B6C00D2431146034A0B40136000BF0C37BD46FD
:100B7C0080BC70471404024080B483B000AF0346BD
:100B8C00FB71FB79002B02D0012B29D051E02C4BAF
:100B9C001B68FA79012101FA02F21A40FB7922FA58
:100BAC0003F3DAB2274B1A70264B1B78002B11D1AA
:100BBC00254B1B781A46234B1B78002B0CBF0123AB
:100BCC000023DBB29A4205D11E4B1A781E4B1A70C9
:100BDC0001232FE01B4B1A781B4B1A70002329E0C2
:100BEC00174B1B68FA79012101FA02F21A40FB79C2
:100BFC0022FA03F3DAB2154B1A70144B1B78002B44
:100C0C0011D1134B1B781A46104B1B78002B0CBFC1
:100C1C0001230023DBB29A4205D10C4B1A780C4B02
:100C2C001A70012306E0094B1A78094B1A7000233D
:100C3C0000E0002318460C37BD4680BC704700BF4F
:100C4C00100402401F000020200000202100002082
:100C5C002200002080B500AF4020FFF7A1FE4FF02E
:100C6C0080434FF6FE72DA624FF0804340F2E73277
:100C7C009A624FF080435B694FF0804243F001036E
:100C8C00536100BF80BD000080B483B000AF7860BA
:100C9C004FF080431B684FF0804223F00103136038
:100CAC004FF080431B694FF0804223F00103136126
:100CBC004FF0804300225A624FF080427B68013B28
:100CCC00D3624FF080431B684FF0804243F0010326
:100CDC001360044B01221A8000BF0C37BD4680BC48
:100CEC00704700BF2400002080B400AF4FF0804359
:100CFC001B6903F00103002B09D04FF080431B69E3
:100D0C004FF0804223F001031361012300E0002324
:100D1C001846BD4680BC704780B400AF0E4B1B8894
:100D2C00002B14D04FF080431B6903F00103002B00
:100D3C0005D0094B00221A804FF0FF3308E04FF02A
:100D4C0080435B6A054A1360044B1B6800E0002378
:100D5C001846BD4680BC70472400002028000020A7
:100D6C00000000000000000001020304060708094F
:0C0D7C000C000020000000000024F40027
:040000050800019559
:00000001FF
